{"contracts/Counter.sol":{"Counter":{"abi":[{"inputs":[{"internalType":"int256","name":"_count","type":"int256"}],"stateMutability":"nonpayable","type":"constructor"},{"inputs":[],"name":"decrementCount","outputs":[],"stateMutability":"nonpayable","type":"function"},{"inputs":[],"name":"getCount","outputs":[{"internalType":"int256","name":"count_","type":"int256"}],"stateMutability":"view","type":"function"},{"inputs":[],"name":"incrementCount","outputs":[],"stateMutability":"nonpayable","type":"function"},{"inputs":[{"internalType":"int256","name":"count_","type":"int256"}],"name":"setCount","outputs":[],"stateMutability":"nonpayable","type":"function"}],"evm":{"bytecode":{"linkReferences":{},"object":"608060405234801561001057600080fd5b506040516101c93803806101c983398101604081905261002f91610037565b600055610050565b60006020828403121561004957600080fd5b5051919050565b61016a8061005f6000396000f3fe608060405234801561001057600080fd5b506004361061004c5760003560e01c8063a87d942c14610051578063b7f90f1214610066578063e5071b8e14610070578063fc583c8d14610078575b600080fd5b60005460405190815260200160405180910390f35b61006e61008b565b005b61006e6100a4565b61006e6100863660046100b6565b600055565b600160008082825461009d91906100e5565b9091555050565b600160008082825461009d919061010c565b6000602082840312156100c857600080fd5b5035919050565b634e487b7160e01b600052601160045260246000fd5b8181036000831280158383131683831282161715610105576101056100cf565b5092915050565b808201828112600083128015821682158216171561012c5761012c6100cf565b50509291505056fea2646970667358221220feb9f0441497b33302900639a021d855ee80a815ba4d2688abc500c3efc4fda464736f6c63430008140033","opcodes":"PUSH1 0x80 PUSH1 0x40 MSTORE CALLVALUE DUP1 ISZERO PUSH2 0x10 JUMPI PUSH1 0x0 DUP1 REVERT JUMPDEST POP PUSH1 0x40 MLOAD PUSH2 0x1C9 CODESIZE SUB DUP1 PUSH2 0x1C9 DUP4 CODECOPY DUP2 ADD PUSH1 0x40 DUP2 SWAP1 MSTORE PUSH2 0x2F SWAP2 PUSH2 0x37 JUMP JUMPDEST PUSH1 0x0 SSTORE PUSH2 0x50 JUMP JUMPDEST PUSH1 0x0 PUSH1 0x20 DUP3 DUP5 SUB SLT ISZERO PUSH2 0x49 JUMPI PUSH1 0x0 DUP1 REVERT JUMPDEST POP MLOAD SWAP2 SWAP1 POP JUMP JUMPDEST PUSH2 0x16A DUP1 PUSH2 0x5F PUSH1 0x0 CODECOPY PUSH1 0x0 RETURN INVALID PUSH1 0x80 PUSH1 0x40 MSTORE CALLVALUE DUP1 ISZERO PUSH2 0x10 JUMPI PUSH1 0x0 DUP1 REVERT JUMPDEST POP PUSH1 0x4 CALLDATASIZE LT PUSH2 0x4C JUMPI PUSH1 0x0 CALLDATALOAD PUSH1 0xE0 SHR DUP1 PUSH4 0xA87D942C EQ PUSH2 0x51 JUMPI DUP1 PUSH4 0xB7F90F12 EQ PUSH2 0x66 JUMPI DUP1 PUSH4 0xE5071B8E EQ PUSH2 0x70 JUMPI DUP1 PUSH4 0xFC583C8D EQ PUSH2 0x78 JUMPI JUMPDEST PUSH1 0x0 DUP1 REVERT JUMPDEST PUSH1 0x0 SLOAD PUSH1 0x40 MLOAD SWAP1 DUP2 MSTORE PUSH1 0x20 ADD PUSH1 0x40 MLOAD DUP1 SWAP2 SUB SWAP1 RETURN JUMPDEST PUSH2 0x6E PUSH2 0x8B JUMP JUMPDEST STOP JUMPDEST PUSH2 0x6E PUSH2 0xA4 JUMP JUMPDEST PUSH2 0x6E PUSH2 0x86 CALLDATASIZE PUSH1 0x4 PUSH2 0xB6 JUMP JUMPDEST PUSH1 0x0 SSTORE JUMP JUMPDEST PUSH1 0x1 PUSH1 0x0 DUP1 DUP3 DUP3 SLOAD PUSH2 0x9D SWAP2 SWAP1 PUSH2 0xE5 JUMP JUMPDEST SWAP1 SWAP2 SSTORE POP POP JUMP JUMPDEST PUSH1 0x1 PUSH1 0x0 DUP1 DUP3 DUP3 SLOAD PUSH2 0x9D SWAP2 SWAP1 PUSH2 0x10C JUMP JUMPDEST PUSH1 0x0 PUSH1 0x20 DUP3 DUP5 SUB SLT ISZERO PUSH2 0xC8 JUMPI PUSH1 0x0 DUP1 REVERT JUMPDEST POP CALLDATALOAD SWAP2 SWAP1 POP JUMP JUMPDEST PUSH4 0x4E487B71 PUSH1 0xE0 SHL PUSH1 0x0 MSTORE PUSH1 0x11 PUSH1 0x4 MSTORE PUSH1 0x24 PUSH1 0x0 REVERT JUMPDEST DUP2 DUP2 SUB PUSH1 0x0 DUP4 SLT DUP1 ISZERO DUP4 DUP4 SGT AND DUP4 DUP4 SLT DUP3 AND OR ISZERO PUSH2 0x105 JUMPI PUSH2 0x105 PUSH2 0xCF JUMP JUMPDEST POP SWAP3 SWAP2 POP POP JUMP JUMPDEST DUP1 DUP3 ADD DUP3 DUP2 SLT PUSH1 0x0 DUP4 SLT DUP1 ISZERO DUP3 AND DUP3 ISZERO DUP3 AND OR ISZERO PUSH2 0x12C JUMPI PUSH2 0x12C PUSH2 0xCF JUMP JUMPDEST POP POP SWAP3 SWAP2 POP POP JUMP INVALID LOG2 PUSH5 0x6970667358 0x22 SLT KECCAK256 INVALID 0xB9 CREATE PREVRANDAO EQ SWAP8 0xB3 CALLER MUL SWAP1 MOD CODECOPY LOG0 0x21 0xD8 SSTORE 0xEE DUP1 0xA8 ISZERO 0xBA 0x4D 0x26 DUP9 0xAB 0xC5 STOP 0xC3 0xEF 0xC4 REVERT LOG4 PUSH5 0x736F6C6343 STOP ADDMOD EQ STOP CALLER "},"methodIdentifiers":{"decrementCount()":"b7f90f12","getCount()":"a87d942c","incrementCount()":"e5071b8e","setCount(int256)":"fc583c8d"}}}}}