{
  "_format": "hh-sol-artifact-1",
  "contractName": "Counter",
  "sourceName": "contracts/Counter.sol",
  "abi": [
    {
      "inputs": [
        {
          "internalType": "int256",
          "name": "_count",
          "type": "int256"
        }
      ],
      "stateMutability": "nonpayable",
      "type": "constructor"
    },
    {
      "inputs": [],
      "name": "decrementCount",
      "outputs": [],
      "stateMutability": "nonpayable",
      "type": "function"
    },
    {
      "inputs": [],
      "name": "getCount",
      "outputs": [
        {
          "internalType": "int256",
          "name": "count_",
          "type": "int256"
        }
      ],
      "stateMutability": "view",
      "type": "function"
    },
    {
      "inputs": [],
      "name": "incrementCount",
      "outputs": [],
      "stateMutability": "nonpayable",
      "type": "function"
    },
    {
      "inputs": [
        {
          "internalType": "int256",
          "name": "count_",
          "type": "int256"
        }
      ],
      "name": "setCount",
      "outputs": [],
      "stateMutability": "nonpayable",
      "type": "function"
    }
  ],
  "bytecode": "0x608060405234801561001057600080fd5b506040516101c93803806101c983398101604081905261002f91610037565b600055610050565b60006020828403121561004957600080fd5b5051919050565b61016a8061005f6000396000f3fe608060405234801561001057600080fd5b506004361061004c5760003560e01c8063a87d942c14610051578063b7f90f1214610066578063e5071b8e14610070578063fc583c8d14610078575b600080fd5b60005460405190815260200160405180910390f35b61006e61008b565b005b61006e6100a4565b61006e6100863660046100b6565b600055565b600160008082825461009d91906100e5565b9091555050565b600160008082825461009d919061010c565b6000602082840312156100c857600080fd5b5035919050565b634e487b7160e01b600052601160045260246000fd5b8181036000831280158383131683831282161715610105576101056100cf565b5092915050565b808201828112600083128015821682158216171561012c5761012c6100cf565b50509291505056fea2646970667358221220feb9f0441497b33302900639a021d855ee80a815ba4d2688abc500c3efc4fda464736f6c63430008140033",
  "linkReferences": {},
  "deployedLinkReferences": {}
}